{
  "contractName": "StoreFront",
  "abi": [
    {
      "constant": false,
      "inputs": [],
      "name": "withdraw",
      "outputs": [],
      "payable": false,
      "stateMutability": "nonpayable",
      "type": "function"
    },
    {
      "constant": false,
      "inputs": [
        {
          "name": "id",
          "type": "uint256"
        },
        {
          "name": "quantity",
          "type": "uint256"
        }
      ],
      "name": "purchase",
      "outputs": [
        {
          "name": "",
          "type": "bool"
        }
      ],
      "payable": true,
      "stateMutability": "payable",
      "type": "function"
    },
    {
      "constant": false,
      "inputs": [
        {
          "name": "id",
          "type": "uint256"
        },
        {
          "name": "quantity",
          "type": "uint256"
        }
      ],
      "name": "addStock",
      "outputs": [],
      "payable": false,
      "stateMutability": "nonpayable",
      "type": "function"
    },
    {
      "constant": true,
      "inputs": [],
      "name": "owner",
      "outputs": [
        {
          "name": "",
          "type": "address"
        }
      ],
      "payable": false,
      "stateMutability": "view",
      "type": "function"
    },
    {
      "constant": false,
      "inputs": [
        {
          "name": "name",
          "type": "bytes32"
        }
      ],
      "name": "addUser",
      "outputs": [],
      "payable": true,
      "stateMutability": "payable",
      "type": "function"
    },
    {
      "constant": false,
      "inputs": [
        {
          "name": "administratorAddress",
          "type": "address"
        }
      ],
      "name": "promoteToAdmin",
      "outputs": [
        {
          "name": "",
          "type": "bool"
        }
      ],
      "payable": false,
      "stateMutability": "nonpayable",
      "type": "function"
    },
    {
      "constant": true,
      "inputs": [],
      "name": "ownerr",
      "outputs": [
        {
          "name": "",
          "type": "string"
        }
      ],
      "payable": false,
      "stateMutability": "view",
      "type": "function"
    },
    {
      "constant": false,
      "inputs": [
        {
          "name": "id",
          "type": "uint256"
        },
        {
          "name": "name",
          "type": "bytes32"
        },
        {
          "name": "price",
          "type": "uint256"
        },
        {
          "name": "quantity",
          "type": "uint256"
        }
      ],
      "name": "addProduct",
      "outputs": [
        {
          "name": "",
          "type": "bool"
        }
      ],
      "payable": false,
      "stateMutability": "nonpayable",
      "type": "function"
    },
    {
      "constant": true,
      "inputs": [
        {
          "name": "id",
          "type": "uint256"
        }
      ],
      "name": "getProduct",
      "outputs": [
        {
          "name": "",
          "type": "bytes32"
        },
        {
          "name": "",
          "type": "address"
        },
        {
          "name": "",
          "type": "uint256"
        },
        {
          "name": "",
          "type": "uint256"
        }
      ],
      "payable": false,
      "stateMutability": "view",
      "type": "function"
    },
    {
      "constant": true,
      "inputs": [
        {
          "name": "",
          "type": "uint256"
        }
      ],
      "name": "productIds",
      "outputs": [
        {
          "name": "",
          "type": "uint256"
        }
      ],
      "payable": false,
      "stateMutability": "view",
      "type": "function"
    },
    {
      "constant": false,
      "inputs": [],
      "name": "deposit",
      "outputs": [],
      "payable": true,
      "stateMutability": "payable",
      "type": "function"
    },
    {
      "constant": true,
      "inputs": [
        {
          "name": "userAddress",
          "type": "address"
        }
      ],
      "name": "getInfo",
      "outputs": [
        {
          "name": "name",
          "type": "bytes32"
        },
        {
          "name": "balance",
          "type": "uint256"
        },
        {
          "name": "administrationAccess",
          "type": "bool"
        }
      ],
      "payable": false,
      "stateMutability": "view",
      "type": "function"
    },
    {
      "inputs": [],
      "payable": false,
      "stateMutability": "nonpayable",
      "type": "constructor"
    },
    {
      "payable": false,
      "stateMutability": "nonpayable",
      "type": "fallback"
    },
    {
      "anonymous": false,
      "inputs": [
        {
          "indexed": true,
          "name": "promoterAddress",
          "type": "address"
        },
        {
          "indexed": true,
          "name": "administratorAddress",
          "type": "address"
        }
      ],
      "name": "LogPromoteToAdmin",
      "type": "event"
    },
    {
      "anonymous": false,
      "inputs": [
        {
          "indexed": true,
          "name": "userAddress",
          "type": "address"
        },
        {
          "indexed": true,
          "name": "name",
          "type": "bytes32"
        },
        {
          "indexed": false,
          "name": "balance",
          "type": "uint256"
        }
      ],
      "name": "LogAddUser",
      "type": "event"
    },
    {
      "anonymous": false,
      "inputs": [
        {
          "indexed": true,
          "name": "productOwner",
          "type": "address"
        },
        {
          "indexed": true,
          "name": "id",
          "type": "uint256"
        },
        {
          "indexed": false,
          "name": "price",
          "type": "uint256"
        },
        {
          "indexed": false,
          "name": "quantity",
          "type": "uint256"
        }
      ],
      "name": "LogAddProduct",
      "type": "event"
    },
    {
      "anonymous": false,
      "inputs": [
        {
          "indexed": true,
          "name": "adminAddress",
          "type": "address"
        },
        {
          "indexed": true,
          "name": "id",
          "type": "uint256"
        },
        {
          "indexed": false,
          "name": "quantity",
          "type": "uint256"
        }
      ],
      "name": "LogAddStock",
      "type": "event"
    },
    {
      "anonymous": false,
      "inputs": [
        {
          "indexed": true,
          "name": "userAddress",
          "type": "address"
        },
        {
          "indexed": false,
          "name": "amount",
          "type": "uint256"
        }
      ],
      "name": "LogDeposit",
      "type": "event"
    },
    {
      "anonymous": false,
      "inputs": [
        {
          "indexed": true,
          "name": "userAddress",
          "type": "address"
        },
        {
          "indexed": false,
          "name": "amount",
          "type": "uint256"
        }
      ],
      "name": "LogWithdraw",
      "type": "event"
    },
    {
      "anonymous": false,
      "inputs": [
        {
          "indexed": true,
          "name": "id",
          "type": "uint256"
        },
        {
          "indexed": true,
          "name": "userAddress",
          "type": "address"
        },
        {
          "indexed": false,
          "name": "quantity",
          "type": "uint256"
        }
      ],
      "name": "LogPurchase",
      "type": "event"
    }
  ],
  "bytecode": "0x60606040526040805190810160405280600b81526020017f6f6c64206d616e206a6f650000000000000000000000000000000000000000008152506000908051906020019062000051929190620000a5565b5034156200005e57600080fd5b33600160006101000a81548173ffffffffffffffffffffffffffffffffffffffff021916908373ffffffffffffffffffffffffffffffffffffffff16021790555062000154565b828054600181600116156101000203166002900490600052602060002090601f016020900481019282601f10620000e857805160ff191683800117855562000119565b8280016001018555821562000119579182015b8281111562000118578251825591602001919060010190620000fb565b5b5090506200012891906200012c565b5090565b6200015191905b808211156200014d57600081600090555060010162000133565b5090565b90565b6114fd80620001646000396000f3006060604052600436106100ba576000357c0100000000000000000000000000000000000000000000000000000000900463ffffffff1680633ccfd60b146100ca57806370876c98146100df5780637edd19a2146101185780638da5cb5b146101445780638faf850d1461019957806393b37442146101b557806399799c4214610206578063a5d2af8814610294578063b9db15b4146102ee578063cb51bba91461036e578063d0e30db0146103a5578063ffdd5cf1146103af575b34156100c557600080fd5b600080fd5b34156100d557600080fd5b6100dd610416565b005b6100fe6004808035906020019091908035906020019091905050610591565b604051808215151515815260200191505060405180910390f35b341561012357600080fd5b6101426004808035906020019091908035906020019091905050610a4e565b005b341561014f57600080fd5b610157610b64565b604051808273ffffffffffffffffffffffffffffffffffffffff1673ffffffffffffffffffffffffffffffffffffffff16815260200191505060405180910390f35b6101b3600480803560001916906020019091905050610b8a565b005b34156101c057600080fd5b6101ec600480803573ffffffffffffffffffffffffffffffffffffffff16906020019091905050610d04565b604051808215151515815260200191505060405180910390f35b341561021157600080fd5b610219610ed8565b6040518080602001828103825283818151815260200191508051906020019080838360005b8381101561025957808201518184015260208101905061023e565b50505050905090810190601f1680156102865780820380516001836020036101000a031916815260200191505b509250505060405180910390f35b341561029f57600080fd5b6102d4600480803590602001909190803560001916906020019091908035906020019091908035906020019091905050610f76565b604051808215151515815260200191505060405180910390f35b34156102f957600080fd5b61030f6004808035906020019091905050611141565b6040518085600019166000191681526020018473ffffffffffffffffffffffffffffffffffffffff1673ffffffffffffffffffffffffffffffffffffffff16815260200183815260200182815260200194505050505060405180910390f35b341561037957600080fd5b61038f60048080359060200190919050506111f7565b6040518082815260200191505060405180910390f35b6103ad61121b565b005b34156103ba57600080fd5b6103e6600480803573ffffffffffffffffffffffffffffffffffffffff16906020019091905050611361565b60405180846000191660001916815260200183815260200182151515158152602001935050505060405180910390f35b6000600360003373ffffffffffffffffffffffffffffffffffffffff1673ffffffffffffffffffffffffffffffffffffffff16815260200190815260200160002060020160019054906101000a900460ff16151561047357600080fd5b600360003373ffffffffffffffffffffffffffffffffffffffff1673ffffffffffffffffffffffffffffffffffffffff1681526020019081526020016000206001015490506000600360003373ffffffffffffffffffffffffffffffffffffffff1673ffffffffffffffffffffffffffffffffffffffff168152602001908152602001600020600101819055503373ffffffffffffffffffffffffffffffffffffffff167f4ce7033d118120e254016dccf195288400b28fc8936425acd5f17ce2df3ab708826040518082815260200191505060405180910390a23373ffffffffffffffffffffffffffffffffffffffff166108fc829081150290604051600060405180830381858888f19350505050151561058e57600080fd5b50565b6000600360003373ffffffffffffffffffffffffffffffffffffffff1673ffffffffffffffffffffffffffffffffffffffff16815260200190815260200160002060020160019054906101000a900460ff1615156105ee57600080fd5b6000600460008581526020019081526020016000206002015411801561062a575081600460008581526020019081526020016000206003015410155b151561063557600080fd5b60003411156106475761064661121b565b5b600360003373ffffffffffffffffffffffffffffffffffffffff1673ffffffffffffffffffffffffffffffffffffffff168152602001908152602001600020600101546004600085815260200190815260200160002060020154830211156106ae57600080fd5b3373ffffffffffffffffffffffffffffffffffffffff16837f51aabffb4a53fbe03d7db5f42eaace2f949e8b83b84add7a9f4b0da886f2dad2846040518082815260200191505060405180910390a361076a60046000858152602001908152602001600020600201548302600360003373ffffffffffffffffffffffffffffffffffffffff1673ffffffffffffffffffffffffffffffffffffffff1681526020019081526020016000206001015461144990919063ffffffff16565b600360003373ffffffffffffffffffffffffffffffffffffffff1673ffffffffffffffffffffffffffffffffffffffff168152602001908152602001600020600101819055506107d982600460008681526020019081526020016000206003015461144990919063ffffffff16565b60046000858152602001908152602001600020600301819055506000600360003373ffffffffffffffffffffffffffffffffffffffff1673ffffffffffffffffffffffffffffffffffffffff168152602001908152602001600020600301600085815260200190815260200160002060020154111561091a576108bb82600360003373ffffffffffffffffffffffffffffffffffffffff1673ffffffffffffffffffffffffffffffffffffffff16815260200190815260200160002060030160008681526020019081526020016000206003015461146290919063ffffffff16565b600360003373ffffffffffffffffffffffffffffffffffffffff1673ffffffffffffffffffffffffffffffffffffffff168152602001908152602001600020600301600085815260200190815260200160002060030181905550610a44565b6080604051908101604052803373ffffffffffffffffffffffffffffffffffffffff16815260200160046000868152602001908152602001600020600101546000191681526020016004600086815260200190815260200160002060020154815260200183815250600360003373ffffffffffffffffffffffffffffffffffffffff1673ffffffffffffffffffffffffffffffffffffffff168152602001908152602001600020600301600085815260200190815260200160002060008201518160000160006101000a81548173ffffffffffffffffffffffffffffffffffffffff021916908373ffffffffffffffffffffffffffffffffffffffff1602179055506020820151816001019060001916905560408201518160020155606082015181600301559050505b6001905092915050565b600360003373ffffffffffffffffffffffffffffffffffffffff1673ffffffffffffffffffffffffffffffffffffffff16815260200190815260200160002060020160009054906101000a900460ff161515610aa957600080fd5b60006004600084815260200190815260200160002060020154111515610ace57600080fd5b813373ffffffffffffffffffffffffffffffffffffffff167fd797059125a66bba30d0ec451d3e79e440a604b7a12dc1cfb04fc871f4340380836040518082815260200191505060405180910390a3610b4681600460008581526020019081526020016000206003015461146290919063ffffffff16565b60046000848152602001908152602001600020600301819055505050565b600160009054906101000a900473ffffffffffffffffffffffffffffffffffffffff1681565b600360003373ffffffffffffffffffffffffffffffffffffffff1673ffffffffffffffffffffffffffffffffffffffff16815260200190815260200160002060020160019054906101000a900460ff16151515610be657600080fd5b80600019163373ffffffffffffffffffffffffffffffffffffffff167fb23cdae526bb4eec56212f5bcfbd248a2f4e73f660322b2b277a4f19588882cd346040518082815260200191505060405180910390a36080604051908101604052808260001916815260200134815260200160001515815260200160011515815250600360003373ffffffffffffffffffffffffffffffffffffffff1673ffffffffffffffffffffffffffffffffffffffff168152602001908152602001600020600082015181600001906000191690556020820151816001015560408201518160020160006101000a81548160ff02191690831515021790555060608201518160020160016101000a81548160ff02191690831515021790555090505050565b6000600160009054906101000a900473ffffffffffffffffffffffffffffffffffffffff1673ffffffffffffffffffffffffffffffffffffffff163373ffffffffffffffffffffffffffffffffffffffff16141515610d6257600080fd5b600360008373ffffffffffffffffffffffffffffffffffffffff1673ffffffffffffffffffffffffffffffffffffffff16815260200190815260200160002060020160019054906101000a900460ff168015610e0b5750600360008373ffffffffffffffffffffffffffffffffffffffff1673ffffffffffffffffffffffffffffffffffffffff16815260200190815260200160002060020160009054906101000a900460ff16155b15610ece578173ffffffffffffffffffffffffffffffffffffffff163373ffffffffffffffffffffffffffffffffffffffff167ff6e452d644b190465720f1cd6353462751e46b545db711b80e8803d794b371eb60405160405180910390a36001600360008473ffffffffffffffffffffffffffffffffffffffff1673ffffffffffffffffffffffffffffffffffffffff16815260200190815260200160002060020160006101000a81548160ff02191690831515021790555060019050610ed3565b600080fd5b919050565b60008054600181600116156101000203166002900480601f016020809104026020016040519081016040528092919081815260200182805460018160011615610100020316600290048015610f6e5780601f10610f4357610100808354040283529160200191610f6e565b820191906000526020600020905b815481529060010190602001808311610f5157829003601f168201915b505050505081565b6000600360003373ffffffffffffffffffffffffffffffffffffffff1673ffffffffffffffffffffffffffffffffffffffff16815260200190815260200160002060020160009054906101000a900460ff161515610fd357600080fd5b60006004600087815260200190815260200160002060020154141515610ff857600080fd5b843373ffffffffffffffffffffffffffffffffffffffff167f3867b9989a9f42b0008c5242a7ce06c5b312631c0c9f39bc39b60c761ba9ed798585604051808381526020018281526020019250505060405180910390a3600280548060010182816110639190611480565b9160005260206000209001600087909190915055506080604051908101604052803373ffffffffffffffffffffffffffffffffffffffff16815260200185600019168152602001848152602001838152506004600087815260200190815260200160002060008201518160000160006101000a81548173ffffffffffffffffffffffffffffffffffffffff021916908373ffffffffffffffffffffffffffffffffffffffff16021790555060208201518160010190600019169055604082015181600201556060820151816003015590505060019050949350505050565b60008060008060006004600087815260200190815260200160002060020154141561116b576111f0565b60046000868152602001908152602001600020600101546004600087815260200190815260200160002060000160009054906101000a900473ffffffffffffffffffffffffffffffffffffffff166004600088815260200190815260200160002060020154600460008981526020019081526020016000206003015493509350935093505b9193509193565b60028181548110151561120657fe5b90600052602060002090016000915090505481565b600360003373ffffffffffffffffffffffffffffffffffffffff1673ffffffffffffffffffffffffffffffffffffffff16815260200190815260200160002060020160019054906101000a900460ff16151561127657600080fd5b3373ffffffffffffffffffffffffffffffffffffffff167f1b851e1031ef35a238e6c67d0c7991162390df915f70eaf9098dbf0b175a6198346040518082815260200191505060405180910390a261131934600360003373ffffffffffffffffffffffffffffffffffffffff1673ffffffffffffffffffffffffffffffffffffffff1681526020019081526020016000206001015461146290919063ffffffff16565b600360003373ffffffffffffffffffffffffffffffffffffffff1673ffffffffffffffffffffffffffffffffffffffff16815260200190815260200160002060010181905550565b6000806000600360008573ffffffffffffffffffffffffffffffffffffffff1673ffffffffffffffffffffffffffffffffffffffff16815260200190815260200160002060000154600360008673ffffffffffffffffffffffffffffffffffffffff1673ffffffffffffffffffffffffffffffffffffffff16815260200190815260200160002060010154600360008773ffffffffffffffffffffffffffffffffffffffff1673ffffffffffffffffffffffffffffffffffffffff16815260200190815260200160002060020160009054906101000a900460ff169250925092509193909250565b600082821115151561145757fe5b818303905092915050565b600080828401905083811015151561147657fe5b8091505092915050565b8154818355818115116114a7578183600052602060002091820191016114a691906114ac565b5b505050565b6114ce91905b808211156114ca5760008160009055506001016114b2565b5090565b905600a165627a7a72305820ff7bb71c5feff62fde439188c82c57978dad8a06d0060e60b020678561c7a3740029",
  "source": "pragma solidity ^0.4.11;\n\nimport '../node_modules/zeppelin-solidity/contracts/math/SafeMath.sol';\n\ncontract StoreFront {\n    using SafeMath for uint;\n    struct Product {\n        address owner;\n        bytes32 name;\n        uint price;\n        uint quantity;\n    }\n    struct User {\n        bytes32 name;\n        uint balance;\n        bool administrationAccess;\n        bool initialized;\n        mapping(uint=>Product) shoppingBasket;\n    }\n    string public ownerr = \"old man joe\";\n    address public owner;\n    uint[] public productIds;\n    mapping(address=>User) users;\n    mapping(uint=>Product) products;\n\n    event LogPromoteToAdmin(address indexed promoterAddress, address indexed administratorAddress);\n    event LogAddUser(address indexed userAddress, bytes32 indexed name, uint balance);\n    event LogAddProduct(address indexed productOwner, uint indexed id, uint price, uint quantity);\n    event LogAddStock(address indexed adminAddress, uint indexed id, uint quantity);\n    event LogDeposit(address indexed userAddress, uint amount);\n    event LogWithdraw(address indexed userAddress, uint amount);\n    event LogPurchase(uint indexed id, address indexed userAddress, uint quantity);\n\n    modifier isAdministrator {\n        require(users[msg.sender].administrationAccess);\n        _;\n    }\n    \n    modifier isUser {\n        require(users[msg.sender].initialized);\n        _;\n    }\n    \n    modifier isOwner {\n        require(msg.sender == owner);\n        _;\n    }\n    \n    function StoreFront() public {\n       owner = msg.sender;\n    }\n\n    function promoteToAdmin(address administratorAddress) isOwner() public returns (bool) {\n        if(users[administratorAddress].initialized && !users[administratorAddress].administrationAccess) {\n            LogPromoteToAdmin(msg.sender, administratorAddress);\n            users[administratorAddress].administrationAccess = true; \n            return true;\n        }\n        revert();\n    }\n    \n    function addUser(bytes32 name) public payable {\n        require(!users[msg.sender].initialized);\n        LogAddUser(msg.sender, name, msg.value);\n        users[msg.sender] = User(name, msg.value, false, true);\n    }\n    \n    function addProduct(uint id, bytes32 name, uint price, uint quantity) isAdministrator() public returns (bool) {\n        require(products[id].price == 0);\n        LogAddProduct(msg.sender, id, price, quantity);\n        productIds.push(id);\n        products[id] = Product(msg.sender, name, price, quantity);\n        return true;\n    }\n    \n    function addStock(uint id, uint quantity) isAdministrator() public {\n        require(products[id].price > 0);\n        LogAddStock(msg.sender, id, quantity);\n        products[id].quantity = products[id].quantity.add(quantity);\n    }\n    \n    function purchase(uint id, uint quantity) isUser() public payable returns (bool) {\n        require(products[id].price > 0 && products[id].quantity >= quantity);\n        //if the user sends ether with their purchase, deposit it first\n        if(msg.value > 0) {\n            deposit();\n        }\n\n        //make the payment\n        if ((quantity * products[id].price) > users[msg.sender].balance) {\n            revert();\n        } \n        //add the product to the user shopping basket\n        LogPurchase(id, msg.sender, quantity);\n        users[msg.sender].balance = users[msg.sender].balance.sub((quantity * products[id].price));\n        products[id].quantity = products[id].quantity.sub(quantity);\n\n        if (users[msg.sender].shoppingBasket[id].price > 0) {\n            users[msg.sender].shoppingBasket[id].quantity = users[msg.sender].shoppingBasket[id].quantity.add(quantity);\n        } else {\n            users[msg.sender].shoppingBasket[id] = Product(msg.sender, products[id].name, products[id].price, quantity);\n        }\n        return true;\n    }\n    \n    function withdraw() public {\n        require(users[msg.sender].initialized);\n        uint sendAmount = users[msg.sender].balance;\n        users[msg.sender].balance = 0;\n        LogWithdraw(msg.sender, sendAmount);\n        msg.sender.transfer(sendAmount);\n    }\n    \n    function deposit() public payable isUser() {\n        LogDeposit(msg.sender, msg.value);\n        users[msg.sender].balance = users[msg.sender].balance.add(msg.value);\n    }\n\n    function getInfo(address userAddress) public constant returns (bytes32 name, uint balance, bool administrationAccess) {\n        return (users[userAddress].name, users[userAddress].balance, users[userAddress].administrationAccess);\n    }\n\n    function getProduct(uint id) public constant returns (bytes32, address, uint, uint) {\n        if(products[id].price == 0) {\n            return;\n        }\n        return (products[id].name, products[id].owner, products[id].price, products[id].quantity);\n    }\n    \n    function() public {\n        revert();\n    }\n}",
  "sourcePath": "/Users/williamprado/Github/Spopify/contracts/StoreFront.sol",
  "compiler": {
    "name": "solc",
    "version": "0.4.18+commit.9cf6e910.Emscripten.clang"
  },
  "schemaVersion": "1.0.1",
  "updatedAt": "2017-11-27T23:05:10.785Z"
}